{
  "contractName": "Adoption",
  "abi": [
    {
      "constant": true,
      "inputs": [
        {
          "internalType": "uint256",
          "name": "",
          "type": "uint256"
        }
      ],
      "name": "adopters",
      "outputs": [
        {
          "internalType": "address",
          "name": "",
          "type": "address"
        }
      ],
      "payable": false,
      "stateMutability": "view",
      "type": "function"
    },
    {
      "constant": false,
      "inputs": [
        {
          "internalType": "uint256",
          "name": "petId",
          "type": "uint256"
        }
      ],
      "name": "adopt",
      "outputs": [
        {
          "internalType": "uint256",
          "name": "",
          "type": "uint256"
        }
      ],
      "payable": false,
      "stateMutability": "nonpayable",
      "type": "function"
    },
    {
      "constant": true,
      "inputs": [],
      "name": "getAdopters",
      "outputs": [
        {
          "internalType": "address[16]",
          "name": "",
          "type": "address[16]"
        }
      ],
      "payable": false,
      "stateMutability": "view",
      "type": "function"
    },
    {
      "constant": false,
      "inputs": [],
      "name": "getBalance",
      "outputs": [
        {
          "internalType": "uint256",
          "name": "",
          "type": "uint256"
        }
      ],
      "payable": false,
      "stateMutability": "nonpayable",
      "type": "function"
    }
  ],
  "bytecode": "0x608060405234801561001057600080fd5b506102ef806100206000396000f3fe608060405234801561001057600080fd5b506004361061004c5760003560e01c806312065fe0146100515780633de4eb171461006f57806343ae80d3146100b55780638588b2c514610123575b600080fd5b610059610165565b6040518082815260200191505060405180910390f35b610077610172565b6040518082601060200280838360005b838110156100a2578082015181840152602081019050610087565b5050505090500191505060405180910390f35b6100e1600480360360208110156100cb57600080fd5b81019080803590602001909291905050506101f3565b604051808273ffffffffffffffffffffffffffffffffffffffff1673ffffffffffffffffffffffffffffffffffffffff16815260200191505060405180910390f35b61014f6004803603602081101561013957600080fd5b8101908080359060200190929190505050610226565b6040518082815260200191505060405180910390f35b6000804790508091505090565b61017a610297565b60006010806020026040519081016040528092919082601080156101e9576020028201915b8160009054906101000a900473ffffffffffffffffffffffffffffffffffffffff1673ffffffffffffffffffffffffffffffffffffffff168152602001906001019080831161019f575b5050505050905090565b6000816010811061020057fe5b016000915054906101000a900473ffffffffffffffffffffffffffffffffffffffff1681565b60008082101580156102395750600f8211155b61024257600080fd5b336000836010811061025057fe5b0160006101000a81548173ffffffffffffffffffffffffffffffffffffffff021916908373ffffffffffffffffffffffffffffffffffffffff160217905550819050919050565b60405180610200016040528060109060208202803883398082019150509050509056fea265627a7a72315820b55b99fadd78fd6c22cf2437ebd2abf056cb9fd9f841c35eb0c535b3da6eb0c064736f6c63430005100032",
  "source": "pragma solidity ^0.5.0;\r\n\r\ncontract Adoption {\r\n    address[16] public adopters;\r\n    // Adopting a pet\r\n    function adopt(uint petId) public returns (uint) {\r\n      require(petId >= 0 && petId <= 15);\r\n\r\n    // The address of the person or smart contract who called this function is denoted by \"msg.sender\"\r\n      adopters[petId] = msg.sender;\r\n\r\n      return petId;\r\n    }\r\n\r\n    // Retrieving the adopters\r\n    function getAdopters() public view returns (address[16] memory) {\r\n      return adopters;\r\n    }\r\n\r\n    function getBalance() public returns (uint) {\r\n        uint balance = address(this).balance;\r\n        return balance;\r\n    }\r\n}\r\n",
  "sourcePath": "C:\\Users\\briki\\OneDrive\\Desktop\\INSAT\\GL\\5\\Blockchain\\pet-shop-tutorial\\contracts\\Adoption.sol",
  "compiler": {
    "name": "solc",
    "version": "0.5.16+commit.9c3226ce.Emscripten.clang"
  },
  "schemaVersion": "3.4.16",
  "updatedAt": "2023-10-21T16:38:49.526Z",
  "devdoc": {
    "methods": {}
  },
  "userdoc": {
    "methods": {}
  }
}